:020000040800F2
:1000000000500020BD240008292400082F240008E7
:10001000352400083B2400084124000800000000AB
:10002000000000000000000000000000472400085D
:1000300053240008000000005F2400086B2400081F
:1000400005250008052500080525000805250008E8
:100050000525000805250008052500087B24000863
:1000600005250008052500080525000805250008C8
:1000700005250008052500080525000805250008B8
:1000800005250008052500080525000805250008A8
:100090000525000805250008052500080525000898
:1000A0000525000805250008052500080525000888
:1000B0000525000805250008052500080525000878
:1000C0000525000805250008052500080525000868
:1000D000052500080525000899240008A524000826
:1000E000052500080525000805250008000000007A
:1000F0000000000000000000000000000000000000
:0C01000000000000000000005FF808F1A3
:1001100010B5054C237833B9044B13B10448AFF341
:1001200000800123237010BD640000200000000047
:10013000C44B000808B5034B1BB103490348AFF398
:10014000008008BD0000000068000020C44B0008CB
:1001500081F0004102E000BF83F0004330B54FEA78
:1001600041044FEA430594EA050F08BF90EA020FE5
:100170001FBF54EA000C55EA020C7FEA645C7FEA78
:10018000655C00F0E2804FEA5454D4EB5555B8BF9B
:100190006D420CDD2C4480EA020281EA030382EA0C
:1001A000000083EA010180EA020281EA0303362D9E
:1001B00088BF30BD11F0004F4FEA01314FF4801C71
:1001C0004CEA113102D0404261EB410113F0004F83
:1001D0004FEA03334CEA133302D0524263EB43033A
:1001E00094EA050F00F0A780A4F10104D5F1200ED8
:1001F0000DDB02FA0EFC22FA05F2801841F1000133
:1002000003FA0EF2801843FA05F359410EE0A5F106
:1002100020050EF1200E012A03FA0EFC28BF4CF037
:10022000020C43FA05F3C01851EBE37101F00045ED
:1002300007D54FF0000EDCF1000C7EEB00006EEBFA
:100240000101B1F5801F1BD3B1F5001F0CD3490884
:100250005FEA30004FEA3C0C04F101044FEA4452DB
:1002600012F5800F80F09A80BCF1004F08BF5FEA62
:10027000500C50F1000041EB045141EA050130BD42
:100280005FEA4C0C404141EB0101013C28BFB1F554
:10029000801FE9D291F0000F04BF01460020B1FA9F
:1002A00081F308BF2033A3F10B03B3F120020CDA72
:1002B0000C3208DD02F1140CC2F10C0201FA0CF050
:1002C00021FA02F10CE002F11402D8BFC2F1200CB5
:1002D00001FA02F120FA0CFCDCBF41EA0C0190406B
:1002E000E41AA2BF01EB0451294330BD6FEA0404B4
:1002F0001F3C1CDA0C340EDC04F11404C4F120029F
:1003000020FA04F001FA02F340EA030021FA04F3B0
:1003100045EA030130BDC4F10C04C4F1200220FA07
:1003200002F001FA04F340EA0300294630BD21FA45
:1003300004F0294630BD94F0000F83F4801306BF0B
:1003400081F480110134013D4EE77FEA645C18BFFF
:100350007FEA655C29D094EA050F08BF90EA020F96
:1003600005D054EA000C04BF1946104630BD91EA8E
:10037000030F1EBF0021002030BD5FEA545C05D191
:100380004000494128BF41F0004130BD14F58004D0
:100390003CBF01F5801130BD01F0004545F0FE4144
:1003A00041F470014FF0000030BD7FEA645C1ABF79
:1003B000194610467FEA655C1CBF0B46024650EAB0
:1003C000013406BF52EA033591EA030F41F40021DC
:1003D00030BD00BF90F0000F04BF0021704730B562
:1003E0004FF4806404F132044FF000054FF0000137
:1003F00050E700BF90F0000F04BF0021704730B5F8
:100400004FF4806404F1320410F0004548BF4042CC
:100410004FF000013EE700BF42004FEAE2014FEA21
:1004200031014FEA02701FBF12F07F4393F07F4FFC
:1004300081F06051704732F07F4208BF704793F0FF
:100440007F4F04BF41F40021704730B54FF4607412
:1004500001F0004521F000411CE700BF50EA010215
:1004600008BF704730B54FF000050AE050EA0102BE
:1004700008BF704730B511F0004502D5404261EB2E
:1004800041014FF4806404F132045FEA915C3FF46F
:10049000D8AE4FF003025FEADC0C18BF03325FEA0C
:1004A000DC0C18BF033202EBDC02C2F1200300FABD
:1004B00003FC20FA02F001FA03FE40EA0E0021FAE2
:1004C00002F11444BDE600BF70B54FF0FF0C4CF4D0
:1004D000E06C1CEA11541DBF1CEA135594EA0C0F82
:1004E00095EA0C0F00F0DEF82C4481EA030621EABD
:1004F0004C5123EA4C5350EA013518BF52EA0335F8
:1005000041F4801143F4801338D0A0FB02CE4FF0A9
:100510000005E1FB02E506F00042E0FB03E54FF0D9
:100520000006E1FB03569CF0000F18BF4EF0010ED1
:10053000A4F1FF04B6F5007F64F5407404D25FEACD
:100540004E0E6D4146EB060642EAC62141EA555180
:100550004FEAC52040EA5E504FEACE2EB4F1FD0CC2
:1005600088BFBCF5E06F1ED8BEF1004F08BF5FEA40
:10057000500E50F1000041EB045170BD06F00046F2
:1005800046EA010140EA020081EA0301B4EB5C049F
:10059000C2BFD4EB0C0541EA045170BD41F4801197
:1005A0004FF0000E013C00F3AB8014F1360FDEBFBC
:1005B000002001F0004170BDC4F10004203C35DA98
:1005C0000C341BDC04F11404C4F1200500FA05F31B
:1005D00020FA04F001FA05F240EA020001F00042BC
:1005E00021F0004110EBD37021FA04F642EB060132
:1005F0005EEA430E08BF20EAD37070BDC4F10C045C
:10060000C4F1200500FA04F320FA05F001FA04F21F
:1006100040EA020001F0004110EBD37041F100010B
:100620005EEA430E08BF20EAD37070BDC4F1200516
:1006300000FA05F24EEA020E20FA04F301FA05F27E
:1006400043EA020321FA04F001F0004121FA04F226
:1006500020EA020000EBD3705EEA430E08BF20EAF6
:10066000D37070BD94F0000F0FD101F00046400030
:1006700041EB010111F4801F08BF013CF7D041EAB2
:10068000060195F0000F18BF704703F000465200B6
:1006900043EB030313F4801F08BF013DF7D043EA87
:1006A0000603704794EA0C0F0CEA135518BF95EA3D
:1006B0000C0F0CD050EA410618BF52EA4306D1D1C4
:1006C00081EA030101F000414FF0000070BD50EAE3
:1006D000410606BF1046194652EA430619D094EA6D
:1006E0000C0F02D150EA013613D195EA0C0F05D157
:1006F00052EA03361CBF104619460AD181EA0301AB
:1007000001F0004141F0FE4141F470014FF0000062
:1007100070BD41F0FE4141F4780170BD70B54FF0FD
:10072000FF0C4CF4E06C1CEA11541DBF1CEA13557D
:1007300094EA0C0F95EA0C0F00F0A7F8A4EB05045F
:1007400081EA030E52EA03354FEA013100F0888056
:100750004FEA03334FF0805545EA131343EA12631F
:100760004FEA022245EA111545EA10654FEA0026D4
:100770000EF000419D4208BF964244F1FD0404F58D
:10078000407402D25B084FEA3202B61A65EB0305E9
:100790005B084FEA32024FF480104FF4002CB6EBA6
:1007A000020E75EB030E22BFB61A754640EA0C0026
:1007B0005B084FEA3202B6EB020E75EB030E22BF66
:1007C000B61A754640EA5C005B084FEA3202B6EBA7
:1007D000020E75EB030E22BFB61A754640EA9C0066
:1007E0005B084FEA3202B6EB020E75EB030E22BF36
:1007F000B61A754640EADC0055EA060E18D04FEAF4
:10080000051545EA16754FEA06164FEAC30343EA93
:1008100052734FEAC2025FEA1C1CC0D111F4801F60
:100820000BD141EA00014FF000004FF0004CB6E759
:1008300011F4801F04BF01430020B4F1FD0C88BFF8
:10084000BCF5E06F3FF6AFAEB5EB030C04BFB6EB03
:10085000020C5FEA500C50F1000041EB045170BDF6
:100860000EF0004E4EEA113114EB5C04C2BFD4EB23
:100870000C0541EA045170BD41F480114FF0000EA7
:10088000013C90E645EA060E8DE60CEA135594EA23
:100890000C0F08BF95EA0C0F3FF43BAF94EA0C0F26
:1008A0000AD150EA01347FF434AF95EA0C0F7FF49B
:1008B00025AF104619462CE795EA0C0F06D152EAEF
:1008C00003353FF4FDAE1046194622E750EA4106D3
:1008D00018BF52EA43067FF4C5AE50EA41047FF4E4
:1008E0000DAF52EA43057FF4EBAE12E74FEA410247
:1008F000B2F1E04324BFB3F5001CDCF1FE5C0DD97E
:1009000001F0004C4FEAC0024CEA5070B2F1004FC7
:1009100040EB830008BF20F00100704711F0804FCA
:1009200021D113F13872BCBF01F00040704741F48F
:1009300080114FEA5252C2F11802C2F1200C10FA93
:100940000CF320FA02F018BF40F001004FEAC12377
:100950004FEAD32303FA0CFC40EA0C0023FA02F31B
:100960004FEA4303CCE77FEA625307D150EA0133F1
:100970001EBF4FF0FE4040F44000704701F00040C1
:1009800040F0FE4040F40000704700BF80F000409F
:1009900002E000BF81F0004142001FBF5FEA410357
:1009A00092EA030F7FEA226C7FEA236C6AD04FEA57
:1009B0001262D2EB1363C1BFD2184140484041409C
:1009C000B8BF5B42192B88BF704710F0004F40F44E
:1009D000000020F07F4018BF404211F0004F41F46A
:1009E000000121F07F4118BF494292EA030F3FD036
:1009F000A2F1010241FA03FC10EB0C00C3F1200349
:100A000001FA03F100F0004302D5494260EB4000D7
:100A1000B0F5000F13D3B0F1807F06D340084FEA42
:100A2000310102F10102FE2A51D2B1F1004F40EB37
:100A3000C25008BF20F0010040EA0300704749009F
:100A400040EB0000013A28BFB0F5000FEDD2B0FA3C
:100A500080FCACF1080CB2EB0C0200FA0CF0AABF5F
:100A600000EBC25052421843BCBFD04018437047FD
:100A700092F0000F81F4000106BF80F40000013203
:100A8000013BB5E74FEA41037FEA226C18BF7FEADA
:100A9000236C21D092EA030F04D092F0000F08BF1C
:100AA0000846704790EA010F1CBF0020704712F003
:100AB0007F4F04D1400028BF40F00040704712F142
:100AC00000723CBF00F50000704700F0004343F0A7
:100AD000FE4040F4000070477FEA226216BF0846DD
:100AE0007FEA23630146420206BF5FEA412390EAA0
:100AF000010F40F4800070474FF0000304E000BF96
:100B000010F0004348BF40425FEA000C08BF704746
:100B100043F0964301464FF000001CE050EA01020A
:100B200008BF70474FF000030AE000BF50EA01021F
:100B300008BF704711F0004302D5404261EB41010C
:100B40005FEA010C02BF84460146002043F0B64331
:100B500008BFA3F18053A3F50003BCFA8CF2083A56
:100B6000A3EBC25310DB01FA02FC634400FA02FC5F
:100B7000C2F12002BCF1004F20FA02F243EB020066
:100B800008BF20F00100704702F1200201FA02FCC8
:100B9000C2F1200250EA4C0021FA02F243EB0200BB
:100BA00008BF20EADC7070474FF0FF0C1CEAD052FF
:100BB0001EBF1CEAD15392EA0C0F93EA0C0F6FD0C0
:100BC0001A4480EA010C400218BF5FEA41211ED09E
:100BD0004FF0006343EA501043EA5111A0FB01318A
:100BE0000CF00040B1F5000F3EBF490041EAD3715F
:100BF0005B0040EA010062F17F02FD2A1DD8B3F1DB
:100C0000004F40EBC25008BF20F00100704790F049
:100C1000000F0CF0004C08BF49024CEA502040EA9B
:100C200051207F3AC2BFD2F1FF0340EAC250704761
:100C300040F400004FF00003013A5DDC12F1190F9F
:100C4000DCBF00F000407047C2F10002410021FA11
:100C500002F1C2F1200200FA02FC5FEA310040F129
:100C6000000053EA4C0308BF20EADC70704792F0A2
:100C7000000F00F0004C02BF400010F4000F013ADA
:100C8000F9D040EA0C0093F0000F01F0004C02BFD5
:100C9000490011F4000F013BF9D041EA0C018FE744
:100CA0000CEAD15392EA0C0F18BF93EA0C0F0AD04A
:100CB00030F0004C18BF31F0004CD8D180EA010070
:100CC00000F00040704790F0000F17BF90F0004F09
:100CD000084691F0000F91F0004F14D092EA0C0FEB
:100CE00001D142020FD193EA0C0F03D14B0218BF7E
:100CF000084608D180EA010000F0004040F0FE40C4
:100D000040F40000704740F0FE4040F4400070475F
:100D10004FF0FF0C1CEAD0521EBF1CEAD15392EADE
:100D20000C0F93EA0C0F69D0A2EB030280EA010CCE
:100D300049024FEA402037D04FF0805343EA111167
:100D400043EA10130CF000408B4238BF5B0042F1C5
:100D50007D024FF4000C8B4224BF5B1A40EA0C006A
:100D6000B3EB510F24BFA3EB510340EA5C00B3EB9C
:100D7000910F24BFA3EB910340EA9C00B3EBD10F8A
:100D800024BFA3EBD10340EADC001B0118BF5FEADC
:100D90001C1CE0D1FD2A3FF650AF8B4240EBC25005
:100DA00008BF20F0010070470CF0004C4CEA5020C6
:100DB0007F32C2BFD2F1FF0340EAC250704740F415
:100DC00000004FF00003013A37E792F0000F00F007
:100DD000004C02BF400010F4000F013AF9D040EA85
:100DE0000C0093F0000F01F0004C02BF490011F419
:100DF000000F013BF9D041EA0C0195E70CEAD15311
:100E000092EA0C0F08D142027FF47DAF93EA0C0FF7
:100E10007FF470AF084676E793EA0C0F04D14B02DB
:100E20003FF44CAF08466EE730F0004C18BF31F08D
:100E3000004CCAD130F000427FF45CAF31F0004387
:100E40007FF43CAF5FE700BF4FF0FF3C06E000BF20
:100E50004FF0010C02E000BF4FF0010C4DF804CD43
:100E60004FEA40024FEA41037FEA226C18BF7FEA53
:100E7000236C11D001B052EA530C18BF90EA010F55
:100E800058BFB2EB030088BFC81738BF6FEAE170E4
:100E900018BF40F0010070477FEA226C02D15FEA80
:100EA000402C05D17FEA236CE4D15FEA412CE1D0EC
:100EB0005DF8040B704700BF844608466146FFE7B3
:100EC0000FB5FFF7C9FF002848BF10F1000F0FBD95
:100ED0004DF808EDFFF7F4FF0CBF012000205DF88E
:100EE00008FB00BF4DF808EDFFF7EAFF34BF012013
:100EF00000205DF808FB00BF4DF808EDFFF7E0FFAC
:100F000094BF012000205DF808FB00BF4DF808EDFC
:100F1000FFF7D2FF94BF012000205DF808FB00BF5F
:100F20004DF808EDFFF7C8FF34BF012000205DF841
:100F300008FB00BF42000ED2B2F1FE4F0BD34FF0C0
:100F40009E03B3EB126209D44FEA002343F000433F
:100F500023FA02F070474FF00000704712F1610F62
:100F600001D1420202D14FF0FF3070474FF0000034
:100F7000704700BF80B400AF044BDB681B0A03F06E
:100F800007031846BD4680BC704700BF00ED00E077
:100F900080B483B000AF0346FB7197F90730002B94
:100FA0000BDBFB7903F01F02064997F907305B0959
:100FB000012000FA02F241F8232000BF0C37BD46A1
:100FC00080BC704700E100E080B483B000AF03460E
:100FD0003960FB7197F90730002B0ADB3B68DAB206
:100FE0000C4997F907301201D2B20B4483F8002361
:100FF0000AE03B68DAB20849FB7903F00F03043BCF
:101000001201D2B20B441A7600BF0C37BD4680BC29
:10101000704700BF00E100E000ED00E080B489B05F
:1010200000AFF860B9607A60FB6803F00703FB610A
:10103000FB69C3F10703042B28BF0423BB61FB69D1
:101040000433062B02D9FB69033B00E000237B61DC
:101050004FF0FF32BB6902FA03F3DA43BB681A4070
:101060007B699A404FF0FF317B6901FA03F3D94362
:101070007B680B40134318462437BD4680BC70473D
:1010800080B483B000AF78607B68DB6843F40052C3
:101090007B68DA6000BF0C37BD4680BC704780B407
:1010A00083B000AF78607B681B6923F490427B6853
:1010B0001A617B685B6923F02A027B685A6100BF72
:1010C0000C37BD4680BC704780B483B000AF7860F9
:1010D0007B681B6803F02003202B0CBF0123002337
:1010E000DBB218460C37BD4680BC704780B483B075
:1010F00000AF78607B681B6803F04003402B0CBF97
:1011000001230023DBB218460C37BD4680BC704774
:1011100080B483B000AF78607B686FF020021A6003
:1011200000BF0C37BD4680BC704780B489B000AFAB
:1011300078607B680C33FB60FB6853E8003FBB6062
:10114000BB6843F02003FB617B680C33FA69BA612A
:101150007B617969BA6941E800233B613B69002BF7
:10116000E7D100BF00BF2437BD4680BC704780B4C4
:1011700083B000AF78607B685B68DBB218460C37E1
:10118000BD4680BC704780B483B000AF78600B462A
:10119000FB70FA787B685A6000BF0C37BD4680BC94
:1011A0007047000080B485B000AF7860084BDA6902
:1011B00007497B681343CB61054BDA697B681340B1
:1011C000FB60FB6800BF1437BD4680BC704700BFA2
:1011D0000010024080B485B000AF7860084B9A6977
:1011E00007497B6813438B61054B9A697B68134001
:1011F000FB60FB6800BF1437BD4680BC704700BF72
:101200000010024090B488B000AFF860B9607A6016
:10121000FB681A46BB681B0E13441C462268BB6859
:101220007B617B6993FAA3F33B613B69B3FA83F378
:10123000DBB29B000F2101FA03F3DB431A40BB68CA
:10124000FB61FB6993FAA3F3BB61BB69B3FA83F358
:10125000DBB29B00796801FA03F31343236000BFFC
:101260002037BD4690BC704780B483B000AF786033
:1012700039607B689B68DA433B681B0A13409BB26A
:10128000002B0CBF01230023DBB218460C37BD46F0
:1012900080BC704780B483B000AF786039603B6831
:1012A0001B0A9AB27B681A6100BF0C37BD4680BC2E
:1012B000704780B483B000AF786039603B681B0A28
:1012C0009AB27B685A6100BF0C37BD4680BC70473C
:1012D00080B485B000AF786039607B68DB68FB6004
:1012E0003B681B0A9BB2BB60FA68BB6813401A04D8
:1012F000FB68D943BB680B401A437B681A6100BF87
:101300001437BD4680BC704780B485B000AF7860AC
:101310003960134A3B68DBB2023352F823203B6842
:101320001B0CDB4302EA03013B681B0CFB60FB6800
:1013300093FAA3F3BB60BB68B3FA83F3DBB21A463C
:101340007B6803FA02F206483B68DBB20A430233C9
:1013500040F8232000BF1437BD4680BC704700BF53
:101360000000014080B500AF40F608010248FFF7D9
:1013700091FF00BF80BD00BF000C014080B500AFF1
:1013800041F210010248FFF785FF00BF80BD00BF9A
:10139000000C014080B500AF41F210010248FFF798
:1013A00088FF00BF80BD00BF000C014080B500AFCA
:1013B00042F220010248FFF76DFF00BF80BD00BF71
:1013C000000C014080B500AF42F220010248FFF757
:1013D00070FF00BF80BD00BF000C014080B500AFB2
:1013E00041F210010248FFF755FF00BF80BD00BF6A
:1013F0000008014080B500AF41F210010248FFF73C
:1014000058FF00BF80BD00BF0008014080B500AF9D
:1014100001F07AF800F062F800F0AAF900F0D2F8D2
:1014200000F03AF900F0A0F840F202212348FFF75B
:101430001BFF0346002B05D0214B30229A72FFF789
:10144000C1FF04E01E4B31229A72FFF7AFFF4FF449
:101450007A7000F015FA1B4B1B684CF6077293422A
:1014600014D900F03BFD00BF174B1B68B3F57A7F22
:10147000FAD3164B1B781A461549164800F0A1FA04
:10148000114B00221A600F4B00221A60124B1B787E
:10149000002BE0D0104B00221A70022000F0B6FAA8
:1014A00000BF094B1B68B3F57A7FFAD3074B1B7853
:1014B0001A460749074800F084FACCE7000C0140BF
:1014C00020000020540000208C0100204C0100204E
:1014D000E800002000480040A601002080B590B040
:1014E00000AF07F1180328220021184603F062FB21
:1014F0003B1D00221A605A609A60DA601A6101236B
:10150000BB614FF48033FB6100233B620123BB626C
:1015100002237B634FF48033BB634FF44023FB63B0
:1015200007F11803184602F0EDFA0346002B01D02C
:1015300000F0DAFE0F237B600223BB600023FB6018
:101540004FF480633B6100237B613B1D0121184602
:1015500002F05AFD0346002B01D000F0C5FE00BF8B
:101560004037BD4680BD000080B500AF124B134A26
:101570001A60114B124A5A600F4B00229A600E4BB0
:101580000022DA600C4B4FF480421A610A4B0022B1
:101590005A61094B00229A61074B0022DA61064B1F
:1015A00000221A62044801F079FA0346002B01D0A8
:1015B00000F09AFE00BF80BD800000200054004073
:1015C000A086010080B58CB000AF07F114030022A3
:1015D0001A605A609A60DA601A615A619A613B46F1
:1015E00000221A605A609A60DA601A614FF4003083
:1015F000FFF7D8FD0420FFF7EDFD40F204433B6008
:1016000009237B600323BB600023FB603B46194634
:101610001F4803F03CF840F608033B6004237B605E
:101620003B4619461A4803F032F8FFF7A3FC03467D
:10163000002201211846FFF7F1FC03461946262037
:10164000FFF7C2FC2620FFF7A3FC4FF416537B6183
:101650000023BB610023FB6100233B620C237B6200
:101660000023BB620023FB6207F1140319460948FB
:1016700003F01CFA0748FFF712FD0648FFF700FDCC
:101680000448FFF752FD00BF3037BD4680BD00BFA4
:10169000000801400044004080B58CB000AF07F165
:1016A000140300221A605A609A60DA601A615A6163
:1016B0009A613B4600221A605A609A60DA601A61A9
:1016C0004FF48020FFF76EFD0820FFF783FD244BC9
:1016D0003B6009237B600323BB600023FB603B4628
:1016E0001946204802F0D3FF1F4B3B6004237B6068
:1016F0003B4619461B4802F0CAFFFFF73BFC034676
:10170000002200211846FFF789FC034619462720CE
:10171000FFF75AFC2720FFF73BFC4FF416537B6181
:101720000023BB610023FB6100233B620C237B622F
:101730000023BB620023FB6207F1140319460B4828
:1017400003F0B4F90948FFF7AAFC0848FFF798FC32
:101750000648FFF7EAFC00BF3037BD4680BD00BF3A
:1017600004000404000C0140080008040048004084
:1017700080B588B000AF07F1180300221A605A60E4
:101780003B1D00221A605A609A60DA601A611020CC
:10179000FFF720FD2020FFF71DFD0420FFF71AFDB5
:1017A0000820FFF717FD32493248FFF782FD41F26A
:1017B00010013148FFF77DFD43F638012F48FFF750
:1017C00078FD2B4B7B600123BB600223FB60002371
:1017D0003B613B1D1946274802F059FF41F21003B7
:1017E0007B600123BB600223FB6000233B6101237C
:1017F0007B613B1D1946204802F049FF43F6380340
:101800007B600123BB600223FB6000233B613B1D27
:1018100019461A4802F03BFF4FF470010120FFF710
:1018200073FD0223BB6101233B7700237B770323F6
:10183000BB7707F11803184602F0F0FD042240F2CE
:1018400002210E48FFF7DEFCFFF794FB034600225F
:1018500001211846FFF7E2FB034619460720FFF770
:10186000B3FB0720FFF794FB00BF2037BD4680BDC8
:10187000200020040010014000080140000C01403D
:1018800080B483B000AF78600A4B00229A607A6817
:1018900013469B001344DB00064A013B5360064B92
:1018A00000221A60034B07221A6000BF0C37BD46A6
:1018B00080BC704710E000E08801002080B500AFD8
:1018C000174B1B680133164A1360164B1B68013314
:1018D000144A1360144B1B680133134A1360134BF3
:1018E0001B680133114A13600F4B1B68B3F5FA7F75
:1018F00005D240F608010E48FFF7CCFC04E040F6A4
:1019000008010B48FFF7D5FC074B1B6841F27B52DF
:10191000934202D9044B00221A6000BF80BD00BF71
:101920008801002054000020840100208C01002048
:10193000000C014080B582B000AF0346FB71FB791B
:1019400019460748FFF71FFC00BF0548FFF7CEFB0D
:101950000346002BF9D000BF00BF0837BD4680BD4D
:101960000048004080B483B000AF0346FB710C4BCD
:101970001B7819460B4AFB795354094B1B78FF2BF4
:1019800003D1074B00221A7005E0054B1B78013389
:10199000DAB2034B1A7000BF0C37BD4680BC7047EB
:1019A0004C010020E800002080B500AF0220FFF7C6
:1019B000C1FF0620FFF7BEFF0320FFF7BBFF00BFFC
:1019C00080BD80B586B000AFF860B9601346FB718A
:1019D0000023FB7511E0FB7DBA6813441B781946A0
:1019E000F868FFF7D0FB00BFF868FFF77FFB0346FE
:1019F000002BF9D0FB7D0133FB75FA7DFB799A4210
:101A0000E9D300BF00BF1837BD4680BD80B584B0A4
:101A100000AF0346FB71524B00221A700220FFF701
:101A2000A1FF4F4B02221A707B20FFF79BFF002380
:101A3000FB736BE02220FFF795FF0023BB731BE0D5
:101A4000FA7BB97B474813465B0013445B000344B1
:101A50000B441B78002B13D0FA7BB97B414813460B
:101A60005B0013445B0003440B441B781846FFF7EC
:101A700079FFBB7B0133BB73BB7B052BE0D900E057
:101A800000BF2220FFF76EFF3A20FFF76BFF2220F6
:101A9000FFF768FF00237B731BE0FA7B797B3248FA
:101AA00013469B0013445B0003440B441B78002B3C
:101AB00013D0FA7B797B2C4813469B0013445B00C0
:101AC00003440B441B781846FFF74CFF7B7B013324
:101AD0007B737B7B042BE0D900E000BF2220FFF763
:101AE00041FFFA7BFB79013B9A4203DA2C20FFF796
:101AF00039FF02E07D20FFF735FFFB7B012B02D190
:101B00001A4B00221A70FB7B0133FB73FA7BFB79C3
:101B10009A428FD3124B1B78023BFB72144AFB7A1A
:101B200053700023FB7201233B7308E03B7B104A98
:101B3000D25CFB7A1344FB723B7B01333B73084B53
:101B40001B783A7B9A42F1D3FB7A1846FFF70AFFDB
:101B50000320FFF707FF00BF1037BD4680BD00BF61
:101B60004C0100200000002020000020A6010020E1
:101B7000E800002080B500AF40F202210A48FFF7DC
:101B800073FB0346002B05D0084B30229A72FFF7F7
:101B900019FC04E0054B31229A72FFF707FC044B55
:101BA00001221A7000BF80BD000C014020000020FF
:101BB000A601002080B588B000AFF860B960134678
:101BC000FB710023FB770123BB610123FB74FB68DE
:101BD00000221A70FB680933FB60FB79002B02D0EE
:101BE000FB790133FB710023FB7708E0FB680022DF
:101BF0001A70FB68013BFB60FB7F0133FB77FB7FC7
:101C0000082BF3D94FF00001B868FFF76BF90346D2
:101C1000002B09D0FB682D221A70BB6883F00043AB
:101C2000BB60FB680133FB60B868FFF783F90346CC
:101C30007B610023FB7710E07B69374A82FB03124C
:101C40009210DB17D31A7B617B69002B09D0FB7CD8
:101C50000133FB74FB7F0133FB77FB7F092BEBD94F
:101C600000E000BFFA7CFB791344013BFA6813449F
:101C7000FB600123FB7708E0BA6913469B0013441D
:101C80005B00BB61FB7F0133FB77FA7FFB799A42F4
:101C9000F2D3B869FEF730FF0346B9681846FEF77D
:101CA00083FF03461846FFF745F903467B6101238E
:101CB000FB7726E0FA7FFB799A4203D1FB682E225C
:101CC0001A7018E07A69144B83FB02139910D3172A
:101CD000C91A0B469B000B445B00D11ACBB23033C0
:101CE000DAB2FB681A707B690B4A82FB031292100E
:101CF000DB17D31A7B61FB68013BFB60FB7F013381
:101D0000FB77FA7FF97CFB790B449A42D2DD00BF66
:101D100000BF2037BD4680BD6766666680B485B06B
:101D200000AF78600B46FB700023FB7305E07B6817
:101D300000221A70FB7B0133FB73FA7BFB789A421B
:101D4000F5D300BF00BF1437BD4680BC704780B4D8
:101D500087B000AF786039604FF6FF737B82002355
:101D6000FB8225E07B685A1C7A601B783B827A8A6A
:101D70003B8A53407B820023BB8213E07B8A03F0C3
:101D80000103FB817B8A5B087B82FB89002B06D0E9
:101D90007B8A83F4BF4383F07E03DB437B82BB8A71
:101DA0000133BB82BB8A072BE8D9FB8A0133FB8254
:101DB000FB8A3A689A42D5D87B8A18461C37BD46BA
:101DC00080BC704780B586B000AF78600846114689
:101DD0001A460346FB700B46BB7013463B80FB78EC
:101DE0003B73BB787B733B881B0A9BB2DBB2BB7334
:101DF0003B88DBB2FB733B8C1B0A9BB2DBB23B74B0
:101E00003B8CDBB27B7407F10C0306211846FFF70D
:101E10009EFF0346FB82FB8ADBB2BB74FB8A1B0A74
:101E20009BB2DBB2FB7407F10C03082219467868F9
:101E3000FFF7C7FD00BF1837BD4680BD80B588B02D
:101E400002AFF860B9607A60FB700323FB753AE07B
:101E50007B6800221A70B88C97F82020F9783B8DA7
:101E600000930346F868FFF7ADFF1B4B00221A6092
:101E700003E07B681B78002B05D1174B1B68B3F57B
:101E8000FA7FF6D300E000BF7B681B78002B03D1FC
:101E9000FB7D013BFB7516E00F4B00221A600E4BD9
:101EA0001B68042B00D8FAE700BFBA687B681B7870
:101EB00019461046FFF74BFF0346002B01D10123C3
:101EC00005E0002303E0FB7D002BC1D10023184671
:101ED0001837BD4680BD00BF8801002080B58AB09C
:101EE00004AF4B4B4FF000021A600023FB751EE05D
:101EF00001220121062000F093F90346454A1360B0
:101F0000454B00221A6000BF434B1B68042BFBD9D2
:101F10003F4B1B683F4A126811461846FEF73CFDCE
:101F200003461A463A4B1A60FB7D0133FB75FB7D75
:101F3000092BDDD9364B1B6838491846FEF7E8FEF9
:101F400003461A46334B1A60324B1B68184600F0A2
:101F50000FF90346324A1360314B1B6802221946BF
:101F60003048FFF727FE30490623029300230193F0
:101F7000032300930A232D4A2D48FFF75FFF0346F2
:101F8000012B3ED1284B1B780A2B36D1264B5B7890
:101F9000032B32D1244B9B780C2B2ED1224BDB7898
:101FA0001A06214B1B791B041A431F4B5B791B023A
:101FB00013431D4A92791343BB6007F108031B6862
:101FC0003B61022239691B48FFF7F4FD164BDB7AAF
:101FD0001A06154B1B7B1B041A43134B5B7B1B021E
:101FE0001343114A927B13437B603B1D1B68FB60CC
:101FF0000222F9681048FFF7DDFD32210A48FFF799
:102000008DFE0520FFF702FD00BF1837BD4680BDDD
:102010009001002094010020880100200000204150
:10202000980100203400002050010020820100208F
:10203000004400403E0000204800002098B500AF5A
:102040002A48FFF741F80346002B3ED0284B1B7867
:102050005A1CD1B2264A11701C462448FFF787F853
:1020600003461A46234B1A55224B1B78022B03D0EA
:102070001F4B00221A7025E01D4B1B78022B21D923
:102080001C4B9B78032B1DD1FFF78EFC194B5B7803
:10209000302B03D1FFF7AEF9FFF77CF9154B5B78D6
:1020A000312B03D1FFF79AF9FFF768F9104B0022A3
:1020B0001A70104B00221A700E4B00225A700D4BF2
:1020C00000229A700948FFF723F8094B1B78132B5D
:1020D00002D9074B00221A7007490848FFF7F8F8A1
:1020E000074B00221A6000BF98BD00BF00480040A7
:1020F0004B010020D40000202000200400100140EB
:102100008C01002098B500AF1348FEF7DDFF0346B1
:10211000002B1AD0114B1B785A1CD1B20F4A1170E8
:102120001C460D48FFF723F803461A460C4B1A5578
:102130000C4B00221A60094B1B78322B02D9074B3B
:1021400000221A700448FEF7E3FF07490748FFF72B
:10215000BFF800BF98BD00BF0044004082010020CE
:1021600050010020880100202000200400100140C0
:1021700080B582B000AF786019497868FEF70AFC34
:1021800003461846FEF748F911A3D3E90023FEF7EA
:102190009BF902460B46104619464FF00002114BC0
:1021A000FEF7BCFA02460B46104619460AA3D3E9CD
:1021B0000023FDF7D3FF02460B4610461946FEF7F3
:1021C00095FB034618460837BD4680BDAFF3008037
:1021D000D7A3703D0AD712C033333333333324408F
:1021E00000E084440028874080B483B000AF0346F9
:1021F000FB710B46BB7113467B71FB791B01DAB295
:102200007B791343DAB2BB795B00DBB21343DBB2F9
:1022100063F07F03DBB218460C37BD4680BC7047C5
:1022200080B586B002AF0346FB710B46BB71134607
:102230007B71284B01221A707A79B979FB7918469B
:10224000FFF7D2FF03461A46224B5A70214B8322D6
:102250009A706423009303231E4A90211E4800F0C5
:1022600061FD1C4B00221A70642300930123194A5C
:102270009021194800F056FD642300930223154A6B
:102280009021154800F04CFE124B1B781B021AB22D
:10229000104B5B781BB213431BB27B81BB79002BC5
:1022A00002D10E4BFB6007E0BB79012B02D10C4B36
:1022B000FB6001E00B4BFB607B891846FEF71CFCC2
:1022C0000346F9681846FEF76FFC034618461037B8
:1022D000BD4680BD9C010020800000207E113F3E55
:1022E0000001003E0001803D80B500AF72B600BF26
:1022F000FFF738F8FFF742F8FFF758F8F8E7000063
:1023000080B485B000AF154B9B69144A43F00103BC
:102310009361124B9B6903F00103BB60BB680F4BD9
:10232000DB690E4A43F08053D3610C4BDB6903F049
:1023300080537B607B680A4B5B68FB60FB6823F023
:10234000E063FB60FB6843F00073FB60044AFB68DA
:10235000536000BF1437BD4680BC70470010024078
:102360000000014080B588B000AF786007F110032D
:1023700000221A605A609A60DA607B681B68154A0E
:10238000934223D1144B9B69134A43F00803936192
:10239000114B9B6903F00803FB60FB68C0233B61A2
:1023A00012237B610323FB6107F1100319460B48DD
:1023B00000F0F0F9084BDB69074A43F40013D361DE
:1023C000054BDB6903F40013BB60BB6800BF20371B
:1023D000BD4680BD0054004000100240000C01408A
:1023E00080B483B000AF7860074B5A697B681340B4
:1023F0007A689A420CBF01230023DBB218460C37DF
:10240000BD4680BC704700BF0004014080B483B06B
:1024100000AF7860034A7B68536100BF0C37BD464C
:1024200080BC70470004014080B400AFFEE780B478
:1024300000AFFEE780B400AFFEE780B400AFFEE778
:1024400080B400AFFEE780B400AF00BFBD4680BCE3
:10245000704780B400AF00BFBD4680BC704780B4F9
:1024600000AF00BFBD4680BC704780B500AFFFF72E
:1024700025FA00F08FF800BF80BD80B500AFFFF7F0
:1024800079FB0220FFF7ACFF0346002B02D00220AD
:10249000FFF7BCFF00BF80BD80B500AFFFF732FE85
:1024A00000BF80BD80B500AFFFF7C8FD00BF80BD95
:1024B00080B400AF00BFBD4680BC7047FFF7F8FF97
:1024C0000B480C490C4A002302E0D458C450043392
:1024D000C4188C42F9D3094A094C002301E0136067
:1024E0000432A242FBD302F041FBFEF78FFF70479C
:1024F0000000002064000020104C00086400002050
:10250000AC010020FEE7000080B500AF084B1B685F
:10251000074A43F010031360032000F007F902207C
:1025200000F008F8FFF7ECFE0023184680BD00BF5E
:102530000020024080B582B000AF7860124B1A686C
:10254000124B1B7819464FF47A73B3FBF1F3B2FBCD
:10255000F3F3184600F011F90346002B01D00123D4
:102560000EE07B680F2B0AD8002279684FF0FF300D
:1025700000F0E7F8064A7B681360002300E00123BF
:1025800018460837BD4680BD580000206000002076
:102590005C00002080B400AF054B1B781A46054B49
:1025A0001B681344034A136000BFBD4680BC7047DC
:1025B00060000020A801002080B400AF024B1B681F
:1025C0001846BD4680BC7047A801002080B485B085
:1025D00000AF78607B6803F00703FB600C4BDB689F
:1025E000BB60BA684FF6FF031340BB60FB681A027A
:1025F000BB68134343F0BF6343F40033BB60044A3A
:10260000BB68D36000BF1437BD4680BC704700BFB5
:1026100000ED00E080B400AF044BDB681B0A03F060
:1026200007031846BD4680BC704700BF00ED00E0C0
:1026300080B483B000AF03463960FB7197F907306F
:10264000002B0ADB3B68DAB20C4997F9073012011C
:10265000D2B20B4483F800230AE03B68DAB208499F
:10266000FB7903F00F03043B1201D2B20B441A763C
:1026700000BF0C37BD4680BC704700BF00E100E0E2
:1026800000ED00E080B489B000AFF860B9607A6016
:10269000FB6803F00703FB61FB69C3F10703042B2D
:1026A00028BF0423BB61FB690433062B02D9FB69F5
:1026B000033B00E000237B614FF0FF32BB6902FA6D
:1026C00003F3DA43BB681A407B699A404FF0FF314D
:1026D0007B6901FA03F3D9437B680B401343184627
:1026E0002437BD4680BC704780B582B000AF7860AB
:1026F0007B68013BB3F1807F01D301230FE00A4ADD
:102700007B68013B53600F214FF0FF30FFF790FFD4
:10271000054B00229A60044B07221A6000231846DA
:102720000837BD4680BD00BF10E000E080B582B034
:1027300000AF78607868FFF749FF00BF0837BD46F3
:1027400080BD80B586B000AF0346B9607A60FB7388
:1027500000237B61FFF75EFF78617A68B96878696A
:10276000FFF790FF024697F90F3011461846FFF722
:102770005FFF00BF1837BD4680BD80B582B000AF97
:1027800078607868FFF7B0FF034618460837BD4603
:1027900080BD000080B48BB000AF7860396000234A
:1027A0007B6200233B6269E101227B6A02FA03F348
:1027B000FB613B681B68FA691340BB61BA69FB693E
:1027C0009A4240F058813B685B689A4A93425ED0D7
:1027D000984A934275D8984A934258D0964A934261
:1027E0006FD8964A934252D0944A934269D8944AF9
:1027F00093424CD0924A934263D8924A934246D035
:10280000904A93425DD8122B2AD8122B59D801A294
:1028100052F823F08F280008692800087B28000858
:10282000BD280008C3280008C3280008C3280008E2
:10283000C3280008C3280008C3280008C3280008CC
:10284000C3280008C3280008C3280008C3280008BC
:10285000C3280008C328000871280008852800083C
:10286000794A934213D02CE03B68DB683B6229E055
:102870003B68DB6804333B6224E03B68DB68083379
:102880003B621FE03B68DB680C333B621AE03B684D
:102890009B68002B02D104233B6213E03B689B68DA
:1028A000012B05D108233B627B68FA691A6109E0B4
:1028B00008233B627B68FA695A6103E000233B62AC
:1028C00000E000BFBB69FF2B01D87B6801E07B689B
:1028D00004337B61BB69FF2B02D87B6A9B0002E05B
:1028E0007B6A083B9B003B617B691A680F213B694F
:1028F00001FA03F3DB431A40396A3B6901FA03F337
:102900001A437B691A603B685B6803F08053002BB5
:1029100000F0B1804D4B9B694C4A43F00103936139
:102920004A4B9B6903F00103BB60BB68484A7B6A62
:102930009B08023352F82330FB607B6A03F00303E9
:102940009B000F2202FA03F3DB43FA681340FB609B
:102950007B68404A934213D07B683F4A93420DD034
:102960007B683E4A934207D07B683D4A934201D13F
:10297000032306E0042304E0022302E0012300E035
:1029800000237A6A02F0030292009340FA6813432C
:10299000FB602F497B6A9B080233FA6841F82320C9
:1029A0003B685B6803F48013002B06D02D4B9A68BC
:1029B0002C49BB6913438B6006E02A4B9A68BB69BC
:1029C000DB43284913408B603B685B6803F40013CA
:1029D000002B06D0234BDA682249BB691343CB6036
:1029E00006E0204BDA68BB69DB431E491340CB602D
:1029F0003B685B6803F40033002B06D0194B5A6820
:102A00001849BB6913434B6006E0164B5A68BB6913
:102A1000DB43144913404B603B685B6803F480332D
:102A2000002B21D00F4B1A680E49BB6913430B6072
:102A300021E000BF00003210000031100000221021
:102A400000002110000012100000111000100240C0
:102A50000000014000080140000C0140001001404E
:102A600000140140000401400B4B1A68BB69DB43B2
:102A7000094913400B607B6A01337B623B681A682B
:102A80007B6A22FA03F3002B7FF48EAE00BF00BFF7
:102A90002C37BD4680BC70470004014080B584B02F
:102AA00000AF78607B68002B01D101232BE17B68AC
:102AB00093F83D30DBB2002B06D17B68002283F80F
:102AC0003C207868FFF74EFC7B68242283F83D2089
:102AD0007B681B681A687B681B6822F001021A6019
:102AE0007B681B681A687B681B6842F400421A60A6
:102AF0007B681B681A687B681B6822F400421A60B6
:102B000001F0CAFBF8607B685B68814A934207D892
:102B1000FB68804A934294BF01230023DBB206E0A6
:102B2000FB687D4A934294BF01230023DBB2002B54
:102B300001D00123E7E0FB68784AA2FB03239B0C4A
:102B4000BB607B681B685B6823F03F017B681B6888
:102B5000BA680A435A607B681B681B6A23F03F010E
:102B60007B685B686A4A934202D8BB68013309E01C
:102B7000BB684FF4967202FB03F3694AA2FB03237E
:102B80009B0901337A6812680B4313627B681B68E8
:102B9000DB6923F44F4222F0FF027B685B685C49EB
:102BA0008B4219D8FB68591E7B685B685B00B1FBE0
:102BB000F3F3591C40F6FC730B40002B0AD0FB6862
:102BC000591E7B685B685B00B1FBF3F30133C3F311
:102BD0000B0351E004234FE07B689B68002B11D16D
:102BE000FB68581E7B6859680B465B000B44B0FBC2
:102BF000F3F30133C3F30B03002B0CBF01230023BA
:102C0000DBB212E0FB68581E7B6859680B469B00DC
:102C10000B4499000B44B0FBF3F30133C3F30B03F4
:102C2000002B0CBF01230023DBB2002B01D00123BA
:102C300022E07B689B68002B0ED1FB68581E7B68E6
:102C400059680B465B000B44B0FBF3F30133C3F34D
:102C50000B0343F400430FE0FB68581E7B68596880
:102C60000B469B000B4499000B44B0FBF3F301337C
:102C7000C3F30B0343F44043796809681343CB6102
:102C80007B681B681B6823F0C0017B68DA697B687E
:102C90001B6A1A437B681B680A431A607B681B68BF
:102CA0009B6823F4034323F0FF037A6811697A6871
:102CB000D26811437A6812680B4393607B681B6883
:102CC000DB6823F0FF017B685A697B689B691A43C4
:102CD0007B681B680A43DA607B681B681A687B683C
:102CE0001B6842F001021A607B6800221A647B684C
:102CF000202283F83D207B6800221A637B68002233
:102D000083F83E20002318461037BD4680BD00BF23
:102D1000A08601007F841E00FF083D0083DE1B4368
:102D2000D34D621080B588B002AFF8607A601A4661
:102D30000B467B8113463B81FFF73EFC7861FB68C5
:102D400093F83D30DBB2202B40F0E0807B690093AC
:102D5000192301227049F86800F09EFC0346002BFD
:102D600001D00223D3E0FB6893F83C30012B01D162
:102D70000223CCE0FB68012283F83C20FB681B683F
:102D80001B6803F00103012B07D0FB681B681A685E
:102D9000FB681B6842F001021A60FB681B681A6836
:102DA000FB681B6822F400621A60FB68212283F82A
:102DB0003D20FB68102283F83E20FB6800221A6445
:102DC000FB687A685A62FB683A895A85FB685B8DB2
:102DD0009AB2FB681A85FB68504ADA6279897B6986
:102DE0003A6AF86800F008FB0346002B01D0012383
:102DF0008DE000233B61FB681B685B693B61FB68FE
:102E00001B689B693B613B6966E07A69396AF868CF
:102E100000F05CFD0346002B0DD0FB681B6C042BFF
:102E200007D1FB681B681A68FB681B6842F40072D4
:102E30001A6001236BE0FB685B6A1A78FB681B6809
:102E40001A61FB685B6A5A1CFB685A62FB685B8DFF
:102E50009BB2013B9AB2FB685A85FB681B8D013B14
:102E60009AB2FB681A85FB681B685B6903F0040370
:102E7000042B1BD1FB681B8D002B17D0FB685B6AF2
:102E80001A78FB681B681A61FB685B6A5A1CFB684E
:102E90005A62FB685B8D9BB2013B9AB2FB685A8514
:102EA000FB681B8D013B9AB2FB681A857A69396A07
:102EB000F86800F053FD0346002B0DD0FB681B6C37
:102EC000042B07D1FB681B681A68FB681B6842F477
:102ED00000721A6001231AE0FB681B8D002B94D14D
:102EE000FB681B681A68FB681B6842F400721A6072
:102EF000FB68202283F83D20FB68002283F83E20F7
:102F0000FB68002283F83C20002300E002231846DF
:102F10001837BD4680BD00BF020010000000FFFF53
:102F200080B58CB002AFF8607A601A460B467B81A0
:102F300013463B8100233B62FFF73EFB7862FB6850
:102F400093F83D30DBB2202B40F04B827B6A00933C
:102F5000192301227F49F86800F09EFB0346002BED
:102F600001D002233EE2FB6893F83C30012B01D1F3
:102F7000022337E2FB68012283F83C20FB681B68D0
:102F80001B6803F00103012B07D0FB681B681A685C
:102F9000FB681B6842F001021A60FB681B681A6834
:102FA000FB681B6822F400621A60FB68222283F827
:102FB0003D20FB68102283F83E20FB6800221A6443
:102FC000FB687A685A62FB683A895A85FB685B8DB0
:102FD0009AB2FB681A85FB685F4ADA6279897B6A74
:102FE0003A6BF86800F08AFA0346002B01D00123FF
:102FF000F8E1FB681B8D002B13D10023FB61FB68FC
:103000001B685B69FB61FB681B689B69FB61FB6973
:10301000FB681B681A68FB681B6842F400721A6040
:10302000CCE1FB681B8D012B1ED1FB681B681A6865
:10303000FB681B6822F480621A6072B600BF00232E
:10304000BB61FB681B685B69BB61FB681B689B69B4
:10305000BB61BB69FB681B681A68FB681B6842F4AC
:1030600000721A6062B635E0FB681B8D022B1ED120
:10307000FB681B681A68FB681B6842F400621A60F0
:1030800072B600BF00237B61FB681B685B697B61D4
:10309000FB681B689B697B617B69FB681B681A681E
:1030A000FB681B6822F480621A6062B612E0FB685B
:1030B0001B681A68FB681B6842F480621A60002370
:1030C0003B61FB681B685B693B61FB681B689B6934
:1030D0003B613B6972E1FB681B8D032B00F21F8192
:1030E000FB681B8D012B23D17A6A396BF86800F0DD
:1030F0007DFC0346002B01D0012373E1FB681B68B4
:103100001A69FB685B6AD2B21A70FB685B6A5A1C68
:10311000FB685A62FB681B8D013B9AB2FB681A85FB
:10312000FB685B8D9BB2013B9AB2FB685A8545E117
:10313000FB681B8D022B52D17B6A00933B6B0022F4
:103140000649F86800F0A8FA0346002B08D00123CE
:1031500048E100BF020010000000FFFF0400010072
:1031600072B600BFFB681B681A68FB681B6842F4F4
:1031700000721A60FB681B681A69FB685B6AD2B24E
:103180001A70FB685B6A5A1CFB685A62FB681B8DED
:10319000013B9AB2FB681A85FB685B8D9BB2013BD1
:1031A0009AB2FB685A8562B600BFFB681B681A6951
:1031B000FB685B6AD2B21A70FB685B6A5A1CFB68D8
:1031C0005A62FB681B8D013B9AB2FB681A85FB684B
:1031D0005B8D9BB2013B9AB2FB685A85EEE07B6A3D
:1031E00000933B6B00228149F86800F055FA0346D2
:1031F000002B01D00123F5E0FB681B681A68FB680F
:103200001B6822F480621A6072B600BFFB681B68FC
:103210001A69FB685B6AD2B21A70FB685B6A5A1C57
:10322000FB685A62FB681B8D013B9AB2FB681A85EA
:10323000FB685B8D9BB2013B9AB2FB685A856C4B75
:103240001B68DB086B4AA2FB03231A0A13469B0088
:103250001344DA00D31A3B623B6A013B3B623B6A90
:10326000002B18D1FB6800221A63FB68202283F828
:103270003D20FB68002283F83E20FB681B6C43F076
:103280002002FB681A6462B600BFFB68002283F864
:103290003C200123A6E0FB681B685B6903F0040384
:1032A000042BD9D1FB681B681A68FB681B6842F4C1
:1032B00000721A60FB681B681A69FB685B6AD2B20D
:1032C0001A70FB685B6A5A1CFB685A62FB681B8DAC
:1032D000013B9AB2FB681A85FB685B8D9BB2013B90
:1032E0009AB2FB685A8562B600BFFB681B681A6910
:1032F000FB685B6AD2B21A70FB685B6A5A1CFB6897
:103300005A62FB681B8D013B9AB2FB681A85FB6809
:103310005B8D9BB2013B9AB2FB685A854EE07A6A9C
:10332000396BF86800F062FB0346002B01D00123E3
:1033300058E0FB681B681A69FB685B6AD2B21A70B6
:10334000FB685B6A5A1CFB685A62FB681B8D013B79
:103350009AB2FB681A85FB685B8D9BB2013B9AB2FF
:10336000FB685A85FB681B685B6903F00403042B48
:1033700024D1FB681B8D032B07D1FB681B681A68DF
:10338000FB681B6822F480621A60FB681B681A697C
:10339000FB685B6AD2B21A70FB685B6A5A1CFB68F6
:1033A0005A62FB681B8D013B9AB2FB681A85FB6869
:1033B0005B8D9BB2013B9AB2FB685A85FB681B8D03
:1033C000002B7FF488AEFB68202283F83D20FB6849
:1033D000002283F83E20FB68002283F83C20002373
:1033E00000E0022318462837BD4680BD04000100D6
:1033F0005800002089B5F81480B588B002AFF86095
:103400007A603B600B467B81FB68DB6A7B617B6992
:10341000082B06D07B69012B03D07B6913F5803F15
:1034200008D1FB681B681A68FB681B6842F480724D
:103430001A600BE0FB681B6B122B07D1FB681B6843
:103440001A68FB681B6842F480721A603B6800933C
:103450007B6800224FF00111F86800F01DF9034667
:10346000002B0DD0FB681B681B6803F48073B3F559
:10347000807F03D1FB684FF400721A64032335E0A8
:10348000FB681B69B3F5804F08D17B89DBB21A4614
:10349000FB681B6802F0FE021A611BE07B89DB11EE
:1034A000DBB203F00603DBB263F00F03DAB2FB68B2
:1034B0001B681A613B687A680E49F86800F066F983
:1034C0000346002B01D0012310E07B89DAB2FB68B0
:1034D0001B681A613B687A680749F86800F056F97A
:1034E0000346002B01D0012300E0002318461837C3
:1034F000BD4680BD080001000200010080B588B013
:1035000002AFF8607A603B600B467B81FB68DB6A48
:103510007B61FB681B681A68FB681B6842F4806269
:103520001A607B69082B06D07B69012B03D07B696D
:1035300013F5803F08D1FB681B681A68FB681B689D
:1035400042F480721A600BE0FB681B6B112B07D1F1
:10355000FB681B681A68FB681B6842F480721A607B
:103560003B6800937B6800224FF00111F86800F07F
:1035700093F80346002B0DD0FB681B681B6803F40F
:103580008073B3F5807F03D1FB684FF400721A6437
:10359000032379E0FB681B69B3F5804F08D17B8971
:1035A000DBB243F00103DAB2FB681B681A615FE02B
:1035B0007B89DB11DBB203F00603DBB263F00F03A0
:1035C000DAB2FB681B681A613B687A683049F868B0
:1035D00000F0DCF80346002B01D0012354E07B8986
:1035E000DAB2FB681B681A613B687A682949F86897
:1035F00000F0CCF80346002B01D0012344E0002367
:103600003B61FB681B685B693B61FB681B689B69EE
:103610003B613B69FB681B681A68FB681B6842F4E6
:1036200080721A603B6800937B6800224FF00111A2
:10363000F86800F031F80346002B0DD0FB681B68DA
:103640001B6803F48073B3F5807F03D1FB684FF4EC
:1036500000721A64032317E07B89DB11DBB203F0ED
:103660000603DBB263F00E03DAB2FB681B681A6173
:103670003B687A680749F86800F088F80346002B31
:1036800001D0012300E0002318461837BD4680BD55
:10369000080001000200010080B584B000AFF860AE
:1036A000B9603B601346FB7148E03B68B3F1FF3FF4
:1036B00044D0FEF781FF0246BB69D31A3A689A42AA
:1036C00002D33B68002B39D1BB681B0CDBB2012B4A
:1036D0000DD1FB681B685B69DA43BB6813409BB282
:1036E000002B0CBF01230023DBB21A460CE0FB6861
:1036F0001B689B69DA43BB6813409BB2002B0CBF6D
:1037000001230023DBB21A46FB799A4216D1FB68EB
:1037100000221A63FB68202283F83D20FB68002208
:1037200083F83E20FB681B6C43F02002FB681A64A0
:10373000FB68002283F83C20012323E0BB681B0CBC
:10374000DBB2012B0DD1FB681B685B69DA43BB68F8
:1037500013409BB2002B0CBF01230023DBB21A469F
:103760000CE0FB681B689B69DA43BB6813409BB2A3
:10377000002B0CBF01230023DBB21A46FB799A42CF
:1037800093D0002318461037BD4680BD80B584B065
:1037900000AFF860B9607A603B6071E0FB681B685D
:1037A0005B6903F48063B3F5806F23D1FB681B680A
:1037B0001A68FB681B6842F400721A60FB681B6899
:1037C0006FF480625A61FB6800221A63FB68202252
:1037D00083F83D20FB68002283F83E20FB681B6CC9
:1037E00043F00402FB681A64FB68002283F83C2063
:1037F000012367E07B68B3F1FF3F41D0FEF7DCFEB9
:1038000002463B68D31A7A689A4202D37B68002B3F
:1038100036D1BB681B0CDBB2012B0CD1FB681B68DB
:103820005B69DA43BB6813409BB2002B14BF0123D2
:103830000023DBB20BE0FB681B689B69DA43BB68C3
:1038400013409BB2002B14BF01230023DBB2002BDB
:1038500016D0FB6800221A63FB68202283F83D2003
:10386000FB68002283F83E20FB681B6C43F02002BB
:10387000FB681A64FB68002283F83C20012321E0E6
:10388000BB681B0CDBB2012B0CD1FB681B685B69AE
:10389000DA43BB6813409BB2002B14BF0123002303
:1038A000DBB20BE0FB681B689B69DA43BB68134023
:1038B0009BB2002B14BF01230023DBB2002B7FF44B
:1038C0006DAF002318461037BD4680BD80B584B06B
:1038D00000AFF860B9607A6034E0F86800F0E3F8AF
:1038E0000346002B01D0012334E0BB68B3F1FF3F56
:1038F00028D0FEF761FE02467B68D31ABA689A4266
:1039000002D3BB68002B1DD1FB681B685B6903F009
:103910008003802B16D0FB6800221A63FB682022EC
:1039200083F83D20FB68002283F83E20FB681B6C77
:1039300043F02002FB681A64FB68002283F83C20F5
:10394000012307E0FB681B685B6903F08003802BA1
:10395000C3D1002318461037BD4680BD80B584B062
:1039600000AFF860B9607A6034E0F86800F09BF866
:103970000346002B01D0012334E0BB68B3F1FF3FC5
:1039800028D0FEF719FE02467B68D31ABA689A421D
:1039900002D3BB68002B1DD1FB681B685B6903F079
:1039A0000403042B16D0FB6800221A63FB68202254
:1039B00083F83D20FB68002283F83E20FB681B6CE7
:1039C00043F02002FB681A64FB68002283F83C2065
:1039D000012307E0FB681B685B6903F00403042B09
:1039E000C3D1002318461037BD4680BD80B584B0D2
:1039F00000AFF860B9607A6049E0FB681B685B69FA
:103A000003F01003102B19D1FB681B686FF0100234
:103A10005A61FB6800221A63FB68202283F83D206C
:103A2000FB68002283F83E20FB681A6CFB681A646E
:103A3000FB68002283F83C20012330E0FEF7BCFD48
:103A400002467B68D31ABA689A4202D3BB68002B3D
:103A50001DD1FB681B685B6903F04003402B16D047
:103A6000FB6800221A63FB68202283F83D20FB6874
:103A7000002283F83E20FB681B6C43F02002FB68A9
:103A80001A64FB68002283F83C20012307E0FB68EE
:103A90001B685B6903F04003402BAED1002318463E
:103AA0001037BD4680BD80B483B000AF78607B68BE
:103AB0001B685B6903F48063B3F5806F1BD17B687F
:103AC0001B686FF480625A617B6800221A637B680E
:103AD000202283F83D207B68002283F83E207B680B
:103AE0001B6C43F004027B681A647B68002283F835
:103AF0003C20012300E0002318460C37BD4680BC63
:103B00007047000080B586B000AF78607B68002BFE
:103B100001D1012372E27B681B6803F00103002BD3
:103B200000F08780924B5B6803F00C03042B0CD0F1
:103B30008F4B5B6803F00C03082B12D18C4B5B6836
:103B400003F48033B3F5803F0BD1894B1B6803F43A
:103B50000033002B6CD07B685B68002B68D101239D
:103B60004CE27B685B68B3F5803F06D1804B1B68F5
:103B70007F4A43F4803313602EE07B685B68002B40
:103B80000CD17B4B1B687A4A23F480331360784B4B
:103B90001B68774A23F4802313601DE07B685B6811
:103BA000B3F5A02F0CD1724B1B68714A43F48023EC
:103BB00013606F4B1B686E4A43F4803313600BE055
:103BC0006B4B1B686A4A23F480331360684B1B6895
:103BD000674A23F4802313607B685B68002B13D053
:103BE000FEF7EAFC386108E0FEF7E6FC02463B69B6
:103BF000D31A642B01D9032300E25D4B1B6803F445
:103C00000033002BF0D014E0FEF7D6FC386108E05A
:103C1000FEF7D2FC02463B69D31A642B01D9032379
:103C2000ECE1534B1B6803F40033002BF0D100E0B0
:103C300000BF7B681B6803F00203002B63D04C4B72
:103C40005B6803F00C03002B0BD0494B5B6803F05F
:103C50000C03082B1CD1464B5B6803F48033002B0C
:103C600016D1434B1B6803F00203002B05D07B6881
:103C70001B69012B01D00123C0E13D4B1B6823F0E0
:103C8000F8027B685B69DB00394913430B603AE05B
:103C90007B681B69002B20D0364B01221A60FEF78F
:103CA0008BFC386108E0FEF787FC02463B69D31ABB
:103CB000022B01D90323A1E12D4B1B6803F0020362
:103CC000002BF0D02A4B1B6823F0F8027B685B695D
:103CD000DB00274913430B6015E0264B00221A60D6
:103CE000FEF76AFC386108E0FEF766FC02463B69B5
:103CF000D31A022B01D9032380E11D4B1B6803F06B
:103D00000203002BF0D17B681B6803F00803002B33
:103D10003AD07B689B69002B19D0174B01221A609F
:103D2000FEF74AFC386108E0FEF746FC02463B69B4
:103D3000D31A022B01D9032360E10D4B5B6A03F018
:103D40000203002BF0D0012000F0BAFA1CE00A4B6D
:103D500000221A60FEF730FC38610FE0FEF72CFC01
:103D600002463B69D31A022B08D9032346E100BF60
:103D7000001002400000424280044242924B5B6AC3
:103D800003F00203002BE9D17B681B6803F00403F6
:103D9000002B00F0A6800023FB758B4BDB6903F042
:103DA0008053002B0DD1884BDB69874A43F0805349
:103DB000D361854BDB6903F08053BB60BB68012393
:103DC000FB75824B1B6803F48073002B18D17F4B6B
:103DD0001B687E4A43F480731360FEF7EDFB386185
:103DE00008E0FEF7E9FB02463B69D31A642B01D9D0
:103DF000032303E1754B1B6803F48073002BF0D0A1
:103E00007B68DB68012B06D16F4B1B6A6E4A43F05F
:103E1000010313622DE07B68DB68002B0CD16A4B39
:103E20001B6A694A23F001031362674B1B6A664AE7
:103E300023F0040313621CE07B68DB68052B0CD1C4
:103E4000614B1B6A604A43F0040313625E4B1B6ABA
:103E50005D4A43F0010313620BE05B4B1B6A5A4A55
:103E600023F001031362584B1B6A574A23F00403E3
:103E700013627B68DB68002B15D0FEF79DFB386171
:103E80000AE0FEF799FB02463B69D31A41F28832F9
:103E9000934201D90323B1E04B4B1B6A03F00203A9
:103EA000002BEED014E0FEF787FB38610AE0FEF746
:103EB00083FB02463B69D31A41F28832934201D90F
:103EC00003239BE0404B1B6A03F00203002BEED15F
:103ED000FB7D012B05D13C4BDB693B4A23F0805332
:103EE000D3617B68DB69002B00F08780364B5B6811
:103EF00003F00C03082B61D07B68DB69022B46D1F1
:103F0000334B00221A60FEF757FB386108E0FEF7DA
:103F100053FB02463B69D31A022B01D903236DE000
:103F2000294B1B6803F00073002BF0D17B681B6AE0
:103F3000B3F5803F08D1244B5B6823F400327B68E3
:103F40009B68214913434B601F4B5B6823F4741239
:103F50007B68196A7B685B6A0B431B4913434B60A0
:103F60001B4B01221A60FEF727FB386108E0FEF7C1
:103F700023FB02463B69D31A022B01D903233DE000
:103F8000114B1B6803F00073002BF0D035E0104B91
:103F900000221A60FEF710FB386108E0FEF70CFB08
:103FA00002463B69D31A022B01D9032326E0064BB4
:103FB0001B6803F00073002BF0D11EE07B68DB6907
:103FC000012B07D1012319E00010024000700040CE
:103FD000600042420B4B5B68FB60FB6803F480327D
:103FE0007B681B6A9A4206D1FB6803F470127B68F7
:103FF0005B6A9A4201D0012300E00023184618377B
:10400000BD4680BD0010024080B584B000AF78602E
:1040100039607B68002B01D10123D0E06A4B1B681B
:1040200003F007033A689A4210D9674B1B6823F0E4
:10403000070265493B6813430B60634B1B6803F041
:1040400007033A689A4201D00123B8E07B681B68F5
:1040500003F00203002B20D07B681B6803F00403ED
:10406000002B05D0594B5B68584A43F4E06353601A
:104070007B681B6803F00803002B05D0534B5B687B
:10408000524A43F460535360504B5B6823F0F00294
:104090007B689B684D4913434B607B681B6803F04A
:1040A0000103002B40D07B685B68012B07D1474B95
:1040B0001B6803F40033002B15D101237FE07B68DC
:1040C0005B68022B07D1414B1B6803F00073002B88
:1040D00009D1012373E03D4B1B6803F00203002B61
:1040E00001D101236BE0394B5B6823F003027B684D
:1040F0005B68364913434B60FEF75EFAF8600AE0EE
:10410000FEF75AFA0246FB68D31A41F2883293420C
:1041100001D9032353E02D4B5B6803F00C027B684D
:104120005B689B009A42EBD1274B1B6803F00703A7
:104130003A689A4210D2244B1B6823F007022249A6
:104140003B6813430B60204B1B6803F007033A687E
:104150009A4201D0012332E07B681B6803F004031C
:10416000002B08D0194B5B6823F4E0627B68DB68A6
:10417000164913434B607B681B6803F00803002B50
:1041800009D0124B5B6823F460527B681B69DB002B
:104190000E4913434B6000F021F802460B4B5B685D
:1041A0001B0903F00F030A49CB5C22FA03F3094A07
:1041B0001360094B1B681846FEF7BCF9002318462C
:1041C0001037BD4680BD00BF0020024000100240F5
:1041D000DC4B0008580000205C00002080B487B051
:1041E00000AF0023FB600023BB6000237B61002342
:1041F0007B6000233B611E4B5B68FB60FB6803F048
:104200000C03042B02D0082B03D027E0194B3B6191
:1042100027E0FB689B0C03F00F03174AD35C7B601D
:10422000FB6803F48033002B10D0114B5B685B0CF0
:1042300003F00103114AD35CBB607B680D4A03FBAA
:1042400002F2BB68B2FBF3F37B6104E07B680C4ACB
:1042500002FB03F37B617B693B6102E0054B3B6141
:1042600000BF3B6918461C37BD4680BC704700BF85
:104270000010024000127A00F44B0008044C0008C1
:1042800000093D0080B400AF024B1B681846BD46D4
:1042900080BC70475800002080B500AFFFF7F2FFE8
:1042A0000246054B5B681B0A03F007030349CB5C1E
:1042B00022FA03F3184680BD00100240EC4B0008C0
:1042C00080B485B000AF78600A4B1B680A4AA2FB35
:1042D00003235B0A7A6802FB03F3FB6000BFFB6801
:1042E0005A1EFA60002BF9D100BF00BF1437BD463B
:1042F00080BC704758000020D34D621080B483B05A
:1043000000AF7860054B1A6804497B6813430B6063
:1043100000BF0C37BD4680BC704700BF00040140A1
:1043200080B483B000AF7860054B1A687B68DB43CC
:10433000034913400B6000BF0C37BD4680BC70477B
:104340000004014080B483B000AF7860054B5A6828
:1043500004497B6813434B6000BF0C37BD4680BCEB
:10436000704700BF0004014080B483B000AF7860A4
:10437000054B5A687B68DB43034913404B6000BF21
:104380000C37BD4680BC70470004014080B483B048
:1043900000AF7860054B9A6804497B6813438B60D3
:1043A00000BF0C37BD4680BC704700BF0004014011
:1043B00080B483B000AF7860054B9A687B68DB43BC
:1043C000034913408B6000BF0C37BD4680BC70476B
:1043D0000004014080B483B000AF7860054BDA6818
:1043E00004497B681343CB6000BF0C37BD4680BCDB
:1043F000704700BF0004014080B483B000AF786014
:10440000054BDA687B68DB4303491340CB6000BF90
:104410000C37BD4680BC70470004014080B584B0B5
:1044200000AF78600023FB737B681B79002B65D09D
:104430007B681B68002B6CD07B685B79022B1CD0DF
:10444000022B25DC002B02D0012B0BD020E07B6857
:104450001B681846FFF788FF7B681B681846FFF744
:104460004DFF18E07B681B681846FFF759FF7B6813
:104470001B681846FFF766FF0DE07B681B6818464F
:10448000FFF73CFF7B681B681846FFF75BFF02E005
:104490000123FB7300BF7B689B79002B39D07B68BD
:1044A0009B79032B1CD0032B25DC012B02D0022B84
:1044B0000BD020E07B681B681846FFF79DFF7B68E8
:1044C0001B681846FFF762FF24E07B681B681846EC
:1044D000FFF76EFF7B681B681846FFF77BFF19E04C
:1044E0007B681B681846FFF751FF7B681B681846FE
:1044F000FFF770FF0EE00123FB730BE07B681B6886
:104500001846FFF70DFF7B681B681846FFF72CFF66
:1045100000E000BFFB7B18461037BD4680BD90B45D
:1045200088B000AFF860B9607A60FB681A46BB6873
:104530001B0E13441C462268BB687B617B6993FA9F
:10454000A3F33B613B69B3FA83F3DBB29B000F211A
:1045500001FA03F3DB431A40BB68FB61FB6993FA82
:10456000A3F3BB61BB69B3FA83F3DBB29B00796849
:1045700001FA03F31343236000BF2037BD4690BC0C
:10458000704790B488B000AFF860B9607A60FB689B
:104590001A46BB681B0E13441C462268BB687B612D
:1045A0007B6993FAA3F33B613B69B3FA83F3DBB214
:1045B0009B00032101FA03F3DB431A40BB68FB6154
:1045C000FB6993FAA3F3BB61BB69B3FA83F3DBB274
:1045D0009B00796801FA03F31343236000BF20377F
:1045E000BD4690BC704790B488B000AFF860B96029
:1045F0007A60FB681A46BB681B0E13441C4622688F
:10460000BB687B617B6993FAA3F33B613B69B3FAB7
:1046100083F3DBB29B00042101FA03F3DB431A406E
:10462000BB68FB61FB6993FAA3F3BB61BB69B3FA97
:1046300083F3DBB29B00796801FA03F31343236031
:1046400000BF2037BD4690BC704780B487B000AF34
:10465000F860B9607A60FB68DA68BB681B0ADB4304
:104660001A40BB681B0A7B617B6993FAA3F33B6129
:104670003B69B3FA83F3DBB219467B688B401A437C
:10468000FB68DA6000BF1C37BD4680BC704780B550
:1046900088B000AF786039603B681B681B021B0C58
:1046A0007B617B693B613B6993FAA3F3FB60FB6829
:1046B000B3FA83F3DBB2FB6144E00122FB699A4069
:1046C0007B691340002B3AD0FB69072B06D840F2D8
:1046D0000112FB6902FA03F3BB6108E0FB69083BC6
:1046E0004FF0011202FA03F343F08063BB613B68B1
:1046F0005B68082B06D13B681B691A46B969786864
:10470000FFF7A3FF3B685B681A46B9697868FFF753
:1047100006FF3B685B68012B03D03B685B68092B95
:104720000DD13B689B681A46B9697868FFF729FF85
:104730003B68DB681A46B9697868FFF754FFFB6984
:104740000133FB617A69FB6922FA03F3002BB4D1D0
:10475000002318462037BD4680BD000080B400AF5E
:10476000034B5B6803F00C031846BD4680BC7047E2
:104770000010024080B400AF034B5B6803F0F0030D
:104780001846BD4680BC70470010024080B400AFA0
:10479000034B5B6803F4E0631846BD4680BC70477A
:1047A0000010024080B400AF034B5B6803F4605319
:1047B0001846BD4680BC70470010024080B400AF70
:1047C000034B5B6803F480331846BD4680BC7047DA
:1047D0000010024080B400AF034B5B6803F4701319
:1047E0001846BD4680BC70470010024080B400AF40
:1047F000044B5B685B0C03F001031846BD4680BCAC
:10480000704700BF0010024080B582B000AF7860F2
:1048100000F020F802467B681A607B681B68184627
:1048200000F03EF802467B685A607B685B68184679
:1048300000F04CF802467B689A607B685B6818461B
:1048400000F058F802467B68DA6000BF0837BD46C2
:1048500080BD000080B582B000AF00237B60FFF711
:104860007DFF0346082B0CD0082B0ED8002B02D05E
:10487000042B03D009E0094B7B6009E0074B7B6008
:1048800006E000F04BF8786002E0044B7B6000BF6C
:104890007B6818460837BD4680BD00BF00127A000D
:1048A00080B582B000AF7860FFF764FF03461B0954
:1048B00003F00F03044AD35C1A467B68D3401846C2
:1048C0000837BD4680BD00BFDC4B000880B582B014
:1048D00000AF7860FFF75AFF03461B0A044AD35C17
:1048E0001A467B68D34018460837BD4680BD00BFD6
:1048F000EC4B000880B582B000AF7860FFF752FF44
:104900000346DB0A044AD35C1A467B68D340184648
:104910000837BD4680BD00BFEC4B000880B582B0B3
:1049200000AF00237B6000233B60FFF747FF386048
:104930003B68002B04D03B68B3F5803F03D00BE00D
:104940000D4B7B600BE0FFF751FF034601330B4A31
:10495000B2FBF3F37B6002E0074B7B6000BFFFF725
:1049600039FF03469B0C02337A6802FB03F31846B7
:104970000837BD4680BD00BF00093D0000127A0027
:1049800080B483B000AF78607B68DB6803F40053C9
:10499000B3F5005F0CBF01230023DBB218460C37D0
:1049A000BD4680BC704780B483B000AF786039608A
:1049B0007B681B6923F440523B681A437B681A6189
:1049C00000BF0C37BD4680BC704780B483B000AFD9
:1049D000786039607B685B6923F440723B681A43F6
:1049E0007B685A6100BF0C37BD4680BC7047000031
:1049F00080B485B000AFF860B9607A60BA681346D9
:104A00009B0013449A001A447B689B00B2FBF3F3AB
:104A1000254AA2FB03235B099BB21B0199B2BA682A
:104A200013469B0013449A001A447B689B00B2FB18
:104A3000F3F21D4BA3FB02035B09642000FB03F3AD
:104A4000D31A1B013233184AA2FB03235B099BB222
:104A500003F0F0039BB20B4499B2BA6813469B0073
:104A600013449A001A447B689B00B2FBF3F20E4B8E
:104A7000A3FB02035B09642000FB03F3D31A1B01B1
:104A80003233094AA2FB03235B099BB203F00F03F5
:104A90009BB20B449BB21A46FB689A6000BF143766
:104AA000BD4680BC704700BF1F85EB5180B588B004
:104AB00000AF786039600123FB770023BB61786821
:104AC000FFF75EFF0346002B45D17B68DB6823F4CC
:104AD000B05323F00C033A6851683A68D268114326
:104AE0003A6812690A431A437B68DA603B689B683C
:104AF00019467868FFF757FF3B685B691946786885
:104B0000FFF763FF07F108031846FFF77DFE7B6898
:104B1000134A934202D17B69BB610CE07B68114A66
:104B2000934202D13B69BB6105E07B680E4A934228
:104B300001D13B69BB61BB69002B0CD03B681B6892
:104B4000002B08D00023FB773B681B681A46B96925
:104B50007868FFF74DFFFB7F18462037BD4680BDC4
:104B600000380140004400400048004070B5002675
:104B70000C4D0D4C641BA410A64209D100F022F884
:104B800000260A4D0A4C641BA410A64205D170BD34
:104B900055F8043B98470136EEE755F8043B984733
:104BA0000136F2E7084C0008084C0008084C0008E1
:104BB0000C4C000803460244934200D1704703F8AE
:104BC000011BF9E7F8B500BFF8BC08BC9E4670476A
:0C4BD000F8B500BFF8BC08BC9E4670475A
:104BDC0000000000000000000102030406070809A1
:104BEC000000000001020304020304050607080983
:0C4BFC000A0B0C0D0E0F1010010200003F
:044C0800350100086A
:044C0C00110100088A
:104C100069640000000072656C61790070680000D2
:104C20000000646F0000000074656D7000000000FB
:104C3000370000000000000000002D000000000010
:104C4000000000002D0000000000000000002D000A
:104C500000000000000000002D0000000000000027
:104C60000000000008CF00000024F4001000000045
:044C7000010000003F
:04000005080024BD0E
:00000001FF
